:04000000207FFFFF5F
:040001001076301035
:040002001076301034
:040003001070502009
:040004001070203028
:04000500107FF0A0D8
:04000600107003F083
:04000700307FFFFF48
:040008001070000272
:0400090010700082F1
:04000A001070001B57
:04000B0014F00001EC
:04000C0014F000816B
:04000D0014F01001DA
:04000E0014F0108159
:04000F0030FFFFFFC0
:0400100034FFFFFFBB
:04001100307FFFFF3E
:040012001070000169
:0400130010F00001E8
:040014001370000560
:0400150013700085DF
:04001600137010054E
:0400170013701085CD
:04001800337FFFFF34
:04001900107010054E
:04001A001070000C56
:04001B0000000000E1
:04001C0000000000E0
:04001D0000000000DF
:04001E0000000000DE
:04001F0000000000DD
:0400200000000000DC
:0400210000000000DB
:0400220000000000DA
:0400230000000000D9
:0400240000000000D8
:0400250000000000D7
:0400260000000000D6
:0400270000000000D5
:00000001FF
