:03000000080000F5
:0300010000038079
:0300020008038070
:030003000000807A
:030004000803806E
:03000500000100F7
:030006000803806C
:0300070000018075
:030008000803806A
:03000900000200F2
:03000A0008038068
:03000B0000028070
:03000C0008038066
:03000D00000300ED
:03000E0008038064
:03000F00000400EA
:03001000008380EA
:0300110000048068
:0300120000A380C8
:030013000803805F
:03001400000500E4
:030015000803805D
:030016000006E8F9
:0300170000C868B6
:0300180000066877
:03001900008868F4
:03001A00000708D4
:03001B0000E808F2
:03001C0000058854
:03001D0000A80830
:03001E0008038054
:03001F0000C98095
:0300200000C90014
:0300210000E38079
:0300220000078054
:0300230002086070
:030024000208606F
:030025000208606E
:030026000208606D
:030027000008804E
:0300280000038052
:0300290000038051
:03002A0000038050
:03002B000003804F
:03002C00060A00C1
:03002D00060C00BE
:03002E00060C00BD
:03002F00060C00BC
:0300300000A380AA
:03003100008380C9
:0300320008038040
:0300330000C98081
:0300340000C90000
:0300350000E38065
:0300360000078040
:030037000308605B
:030038000308605A
:0300390003086059
:03003A0003086058
:03003B000008803A
:03003C000003803E
:03003D000003803D
:03003E000003803C
:03003F000003803B
:03004000070A00AC
:03004100070C00A9
:03004200070C00A8
:03004300070C00A7
:0300440000A38096
:03004500008380B5
:030046000803802C
:03004700000CD8D2
:030048000003D8DA
:0300490008038029
:03004A00000CE8BF
:03004B000003E8C7
:03004C000003E8C6
:03004D000083E845
:03004E00040B6838
:03004F00040C6836
:03005000040C6835
:03005100040C6834
:03005200000CE8B7
:030053000003E8BF
:030054000003E8BE
:0300550000A3E81D
:030056000803801C
:03005700040A0890
:03005800040C088D
:03005900040C088C
:03005A00040C088B
:03005B00040AE8AC
:03005C00040C6829
:03005D00040C6828
:03005E00040C6827
:03005F0000A3807B
:03006000040B6826
:03006100040C6824
:03006200040C6823
:03006300040C6822
:03006400040B8802
:03006500040C0880
:03006600040C087F
:03006700040C087E
:03006800000C8009
:0300690000C38051
:03006A0000838090
:03006B0000E3802F
:03006C0008038006
:03006D000003800D
:03006E000083808C
:03006F0008038003
:030070000083808A
:0300710000A38069
:0300720008038000
:03007300040A88F4
:03007400080380FE
:03007500040D0077
:03007600080380FC
:0300770000000086
:0300780000000085
:0300790000000084
:03007A0000000083
:03007B0000000082
:03007C0000000081
:03007D0000000080
:03007E000000007F
:03007F000000007E
:00000001FF
